:020000000528D1
:080008008B01831685012730EE
:1000100086008030810083128C018D018E010530B5
:1000200085008617861A1228861818288C01212820
:1000300006191D2801308C002128061821280230BD
:100040008C000C08031914288617861A25280530F9
:100050008D0062208D0B29288613861E2D28050809
:10006000053C031D3B280C08013C031939280930C5
:100070006028063060280508063C031D47280C0848
:10008000013C03194528053060280A30602805081E
:100090000A3C031D53280C08013C03195128063063
:1000A0006028093060280508093C031D5F280C08FA
:1000B000013C03195D280A306028053060280530AE
:1000C00085001428C8308E00000000008E0B6428C4
:0200D000080026
:02400E00F23F7F
:00000001FF
