:020000040000FA
:0400000056EF08F0BF
:04000800B5EF07F059
:040018009CEF07F062
:06002A0000C0E5FF01C06B
:10003000E5FF02C0E5FF03C0E5FF04C0E5FF05C022
:10004000E5FF06C0E5FF07C0E5FF08C0E5FF000EBD
:100050000001C75D02E1200EC65D05E2C6C000F0EA
:10006000C7C001F003D0200E006E016AFC0E04012F
:100070000415046F030E0114026E045102120250A3
:10008000046F0050026E0401056F800E026E050EB3
:10009000036E0250066F0350076F00500001C65FE9
:1000A0000150C75B050E0001C46F800EC36F800E48
:1000B000C56F026A02C003F0046A0150045C02E1E9
:1000C0000050035C2DE2C3C003F0C4C004F0C5C0FF
:1000D00005F0C0C006F0C1C007F0C2C008F006C0FD
:1000E000E9FF07C0F3FF085026EC08F0066E000198
:1000F000C02B01E3C12B02E30001C22B06C0E5FFC8
:1001000003C0E9FF04C0F3FF055062EC08F00001F2
:10011000C32B01E3C42B02E30001C52B022ACAD77B
:10012000E4CF08F0E4CF07F0E4CF06F0E4CF05F029
:10013000E4CF04F0E4CF03F0E4CF02F0E4CF01F029
:10014000E4CF00F0120000C0E5FF01C0E5FF02C0EF
:10015000E5FF03C0E5FF1F0E05014015006E42C517
:1001600001F0005012E10150010A01E071D0010ECE
:100170000001CA6F05014151030A04E1010E0001AB
:10018000CF6F66D00001CF6B63D00050020A01E050
:100190005FD00F0E05014415006E800E4415026EEF
:1001A0000150D8A455D0005001E152D0010E0001F9
:1001B000CA6F0050080DF3CF00F0F4CF01F00050EB
:1001C0000001C36F040E0124C46F800EC56B01AE25
:1001D00001D0C5690001C523025005E0040EC32704
:1001E000000EC423C52305014151030A10E1C3C019
:1001F00000F0C4C001F0C5C003F0840EE56E00C07D
:10020000E9FF01C0F3FF035062EC08F021D0025077
:10021000010A0FE1C3C000F0C4C001F0C5C002F084
:10022000E56A00C0E9FF01C0F3FF025062EC08F08C
:100230000FD0C3C000F0C4C001F0C5C002F0880EEA
:10024000E56E00C0E9FF01C0F3FF025062EC08F068
:10025000E4CF03F0E4CF02F0E4CF01F0E4CF00F00C
:10026000120000C0E5FF01C0E5FF1F0E05014015AB
:10027000010A03E10501445101E077D041C500F0D6
:100280000050060A28E143C501F00150210A12E19D
:10029000010E0001CA6F090E1E240001C06F000E7E
:1002A0000C20C16F000E0020C26F090E0001C66F46
:1002B000C76B11D00150220A0EE1010E0001CA6F76
:1002C000480E0001C06F0C0EC16F000EC26F2F0EE2
:1002D0000001C66FC76B600E05014015200A01E0E2
:1002E00044D00050010A03E130EC07F03ED000504A
:1002F000090A06E1010E0001CB6F12EC07F035D0C0
:100300000050020A0FE1010E0001CA6F000E000149
:10031000C16FCC0EC06F800EC26F010E0001C66FA0
:10032000C76B23D000500A0A06E1010E0001CA6F14
:1003300043C5CCF01AD00050030A0FE1010E0001B2
:10034000CA6F000E0001C16FCD0EC06F800EC26F6C
:10035000010E0001C66FC76B08D000500B0A05E103
:10036000010E0001CA6F42C5CDF0E4CF01F0E4CF29
:1003700000F0120000C0E5FF01C0E5FF02C0E5FF8C
:100380001F0E05014015006E0501806B816B00504A
:1003900013E1010E0001CA6F0001CE5104E0010E0D
:1003A00005018011806F0001CF51D8B447D0020EF3
:1003B00005018011806F42D00050010A04E1010E56
:1003C0000001CA6F3BD00050020A01E037D00F0E87
:1003D00005014415006E800E4415016E010E0001EA
:1003E000CA6F0050080DF3CF00F0F4CF02F00050B8
:1003F0000001C36F040E0224C46F800EC56B02AEF1
:1004000001D0C5690001C523015005E0040EC327D2
:10041000000EC423C523C3C000F0C4C001F0C5C092
:1004200002F000C0E9FF01C0F3FF025026EC08F023
:10043000006E00A403D0010E0501806F0001CA51B7
:100440000BE0050E0001C16F800EC06F800EC26F01
:10045000020E0001C66FC76BE4CF02F0E4CF01F0DB
:10046000E4CF00F0120000C0E5FF01C0E5FF7F0E01
:1004700004010415046F7F0E0015006F0001D26B9C
:100480000001CA6B0001CB6B0001C66BC76B10EC9F
:1004900004F031EC01F00001CA5110E1200E04011A
:1004A000016F400E006E050E016E0050026F01508C
:1004B000036F840E0401006F046F47D0050140AF45
:1004C0002ED00001C7510501475D04E10001C6516E
:1004D0000501465D04E246C5C6F047C5C7F015EC08
:1004E00000F0020E0001D26F200E0401016F400ED9
:1004F000006E050E016E0050026F0150036F800EFA
:100500000401006F800E006E050E016E00500401A4
:10051000066F0150076FC80E0401046F16D0010E5C
:100520000001D26F0401056BC80E0401046F200E98
:100530000401016F800E006E050E016E0050026F07
:100540000150036FC80E0401006F6D98E4CF01F0F5
:10055000E4CF00F0120000C0E5FF01C0E5FF02C0DB
:10056000E5FF03C0E5FF04C0E5FF05C0E5FF06C0E9
:10057000E5FF07C0E5FF08C0E5FF09C0E5FF030E82
:1005800004010015016A036E026A01C400F0025002
:1005900000120350011200500001C6270150C7236A
:1005A000050E0001C16F800EC06F800EC26F036A1E
:1005B0000150035C02E10050025C2FE2C3C004F072
:1005C000C4C005F0C5C006F0C0C007F0C1C008F047
:1005D000C2C009F007C0E9FF08C0F3FF095026ECCC
:1005E00008F0076E0001C02B01E3C12B02E30001FC
:1005F000C22B07C0E5FF04C0E9FF05C0F3FF0650AA
:1006000062EC08F00001C32B01E3C42B02E30001FC
:10061000C52B022AD8B0032ACBD7E4CF09F0E4CF08
:1006200008F0E4CF07F0E4CF06F0E4CF05F0E4CF24
:1006300004F0E4CF03F0E4CF02F0E4CF01F0E4CF24
:1006400000F0120000C0E5FF01C0E5FF02C0E5FFB9
:1006500005014051800A01E065D043C500F042C564
:1006600001F00050010A0FE1010E0001CA6F0C0EEB
:100670000001C06F0C0EC16F000EC26F120E0001A0
:10068000C66FC76B4FD00050020A18E1010E00017F
:10069000CA6F1E0E0001C06F0C0EC16F000EC26F3C
:1006A000200EF66E0C0EF76E000EF86E0900F5CFF8
:1006B00002F002C0C6F00001C76B34D00050030A3C
:1006C00031E1010E0001CA6F015008E1780E00010E
:1006D000C06F0C0EC16F000EC26F12D00150010A24
:1006E00008E17C0E0001C06F0C0EC16F000EC26FDE
:1006F00007D08A0E0001C06F0C0EC16F000EC26FD2
:10070000C0C000F0C1C001F0C2C002F000C0E9FFEB
:1007100001C0F3FF025026EC08F0006E00C0C6F0E6
:100720000001C76BE4CF02F0E4CF01F0E4CF00F0AA
:100730001200D9CFE5FFE1CFD9FF00C0E5FF01C02E
:10074000E5FF02C0E5FF03C0E5FF04C0E5FF05C00B
:10075000E5FF06C0E5FF07C0E5FF08C0E5FF020EA4
:10076000DBCF00F0030EDBCF01F0040EDBCF02F095
:10077000050EDBCF03F00001C96B040108BF39D0BF
:1007800003500401095DD8A009C403F00001C96B3E
:1007900003500001C95D21E2C9510024046EE86ADA
:1007A0000120056EE86A0220066E200EC925076E3C
:1007B000086A050E082207C0E9FF08C0EAFFEFCF6C
:1007C00007F007C0E5FF04C0E9FF05C0F3FF0650CE
:1007D00062EC08F00001C92BDBD7200E0401096F81
:1007E000040108AD03D0880E086F03D0C80E0401C1
:1007F000086F0001C951E4CF08F0E4CF07F0E4CF5F
:1008000006F0E4CF05F0E4CF04F0E4CF03F0E4CF4A
:1008100002F0E4CF01F0E4CF00F0E4CFD9FF120002
:1008200000C0E5FF01C0E5FF41C500F0600E050115
:100830004015016E015001E061D00050050A09E148
:10084000010E0001CA6F040E0001D06F42C5C8F04E
:1008500055D00050060A03E122EC03F04FD00050BF
:10086000090A12E1010E0001CA6F42C5D1F0000170
:10087000D15104E1040E0001D06F40D0050E0001FB
:10088000D06F8BEC06F03AD00050080A0FE1010E51
:100890000001CA6F000E0001C16FD10EC06F800E43
:1008A000C26F010E0001C66FC76B28D0005003E174
:1008B000BAEC01F023D00050010A03E00050030A13
:1008C00003E1A3EC00F01AD000500A0A11E1010E76
:1008D0000001CA6F0501806B050E0001C16F800E1B
:1008E000C06F800EC26F010E0001C66FC76B06D0CD
:1008F00000500B0A03E1010E0001CA6FE4CF01F0C2
:10090000E4CF00F01200D9CFE5FFE1CFD9FF00C05E
:10091000E5FF01C0E5FF02C0E5FF03C0E5FF04C03D
:10092000E5FF05C0E5FF06C0E5FF07C0E5FF08C01D
:10093000E5FF020EDBCF00F0030EDBCF01F0040E6B
:10094000DBCF02F0050EDBCF03F004010CAF02D0C9
:10095000E86A33D0210E035C02E3200E036E046AC2
:100960000350045C1DE2000E0424056E066A050EA9
:10097000062204500024076EE86A0120086EE86A27
:10098000022007C0E9FF08C0F3FF26EC08F0076E5D
:1009900005C0E9FF06C0EAFF07C0EFFF042AE0D761
:1009A000035004010D6F04010CAD03D0880E0C6FD1
:1009B00003D0C80E04010C6F0350E4CF08F0E4CF5D
:1009C00007F0E4CF06F0E4CF05F0E4CF04F0E4CF85
:1009D00003F0E4CF02F0E4CF01F0E4CF00F0E4CF85
:1009E000D9FF120000C0E5FF6C50D8A43AD03C0EED
:1009F00004010015006ED8900030006ED8900032CF
:100A000000500D0A03E133EC02F04DD00001D25149
:100A1000010A24E1ABEC02F00001CB5115E042C524
:100A200000F005014351020A06E10050E56E37EC83
:100A300008F0E12A09D005014351030A05E10050FD
:100A4000E56E83EC07F0E12A040100AD03D0880EC7
:100A5000006F29D0C80E0401006F25D069EC07F0A3
:100A600022D06C50040A1FE16E500BE10001D051FE
:100A7000040A07E142C56EFF6E5003E1030E000158
:100A8000D06F0001D251020A0CE115EC00F0040114
:100A900004AD03D0880E046F06D0C80E0401046FA5
:100AA00002D069EC07F0E4CF00F0120000C0E5FFCF
:100AB00001C0E5FF02C0E5FF03C0E5FF04C0E5FF9C
:100AC000000E016E600E006E800E026E200EE56E4E
:100AD0000250E56E0150E56E0050E56E99EC03F0B2
:100AE000006E040EE126005036E0006A200E005C25
:100AF0001AE2800E0024016E026A000E0222600ECD
:100B00000024036E046A000E042203C0E9FF04C03F
:100B1000EAFFEFCF03F001C0E9FF02C0EAFF03C024
:100B2000EFFF002AE3D704010CAF03D055EC06F029
:100B3000FAD7000E016E800E006E800E026E200E3F
:100B4000E56E0250E56E0150E56E0050E56E83ECF7
:100B500004F0040EE126E4CF04F0E4CF03F0E4CF88
:100B600002F0E4CF01F0E4CF00F01200D80EF66EF0
:100B7000100EF76E000EF86E0900F550056E0900B4
:100B8000F550066E04E1056702D005EF06F0090096
:100B9000F550006E0900F550016E0900F550026E27
:100BA00009000900F550E96E0900F550EA6E0900E8
:100BB00009000900F550036E0900F550046E0900A4
:100BC0000900F6CF07F0F7CF08F0F8CF09F000C022
:100BD000F6FF01C0F7FF02C0F8FF035002E1045026
:100BE00009E00900F550EE6EF5CF7EFF0306F6E250
:100BF0000406F7D707C0F6FF08C0F7FF09C0F8FFE3
:100C0000050601E20606C2EF05F01200120100021D
:100C1000000000206B1D020010000102000109020B
:100C20002000010100A032090400000207010200B7
:100C300007050102200000070582022000000000D5
:100C4000000000000000000006A0FF0901A101094A
:100C50000215002600FF7508952081020902150083
:100C60002600FF750895209102090115002600FF56
:100C700075089520B102C000040309040E03480062
:100C800049004A004F0064006500200350005500F1
:100C90005400410020005000490043004300480038
:100CA0004F0054004F002100210000C0E5FF00016B
:100CB000D0512EE068A403D069B473EC08F0006A48
:100CC0006DB2002A0050010A23E068A003D069B089
:100CD000B2EC06F068A803D069B87CEC08F068AC08
:100CE00003D069BC79EC08F068AA03D069BA47EC74
:100CF00008F068A202D069B26892030E0001D05DCC
:100D000007E368A605D069A603D0F2EC04F0689664
:100D1000E4CF00F0120000C0E5FF01C0E5FF0001D4
:100D2000C96B1E0E716E200E0401096F200E006E3D
:100D3000050E016E00500A6F01500B6F880E040102
:100D4000086F000E006E050E016E005004010E6F5C
:100D500001500F6F400E04010C6FE4CF01F0E4CF9F
:100D600000F0120000C0E5FF6A6A686A9F0E6B6EB1
:100D70007B0E696E6E6A160E706E006A68B6002A87
:100D80000050010A02E16896F8D76D9869EC07F007
:100D90000001CF6B0001CE6B0001D16B030E00018F
:100DA000D06FE4CF00F012000F0EC112140E6F6E60
:100DB000FF0EC26EF26AF16A966A846A0001D06B15
:100DC0000001CF6B0001D16B77EC08F0FCEC07F071
:100DD000006A6FBE002A0050010A02E055EC06F0DE
:100DE00012EC08F0F3D71200D9CFE5FFE1CFD9FF1D
:100DF00000C0E5FF020EDBCF00F000500EE1000E58
:100E00000001C16FA00EC06F800EC26F8050000144
:100E1000A06F200E0001C66FC76BE4CF00F0E4CFD7
:100E2000D9FF120000C0E5FF42C500F005014351A3
:100E3000020A08E10050E56ECEEC07F0E12A00015D
:100E4000CA6F0BD005014351030A07E10050E56E5C
:100E5000E5EC07F0E12A0001CA6FE4CF00F01200D0
:100E600000C0E5FF42C500F005014351010A08E159
:100E70000050E56E4EEC07F0E12A0001CA6F0BD07E
:100E800005014351030A07E10050E56EF4EC06F05A
:100E9000E12A0001CA6FE4CF00F01200D9CFE5FFCC
:100EA000E1CFD9FF00C0E5FF020EDBCF00F000501C
:100EB0000BE1050E0001C16F000EC06F800EC26F06
:100EC000200E0001C66FC76BE4CF00F0E4CFD9FF5E
:100ED000120000C0E5FF01C0E5FF0001D26B200E4B
:100EE0000401016F400E006E050E016E0050026F8E
:100EF0000150036F880E0401006F046BE4CF01F012
:100F0000E4CF00F01200D9CFE5FFE1CFD9FF00C058
:100F1000E5FF020EDBCF00F0005009E1010E0001F9
:100F2000A015010BF46E8450FE0BF410846EE4CF18
:100F300000F0E4CFD9FF1200F3CFE5FFF4CFE5FFD7
:100F4000E9CFE5FFEACFE5FFFACFE5FFFBCFE5FF0D
:100F5000E4CFFBFFE4CFFAFFE4CFEAFFE4CFE9FF01
:100F6000E4CFF4FFE4CFF3FF1100F3CFE5FFF4CFBC
:100F7000E5FFE9CFE5FFEACFE5FFFACFE5FFFBCFDD
:100F8000E5FFE4CFFBFFE4CFFAFFE4CFEAFFE4CFD5
:100F9000E9FFE4CFF4FFE4CFF3FF1100D9CFE5FF81
:100FA000E1CFD9FF00C0E5FF020EDBCF00F000501B
:100FB00007E1050E0001C46F200EC36F800EC56FE0
:100FC000E4CF00F0E4CFD9FF1200D9CFE5FFE1CFA5
:100FD000D9FF00C0E5FF020EDBCF00F0005007E1B3
:100FE000000E0001C46FA00EC36F800EC56FE4CF6A
:100FF00000F0E4CFD9FF12006DB606D06D6A696AC1
:101000006D86010E0001D06F0001D051010A09E187
:101010006DBA07D0686A696A69806988020E000142
:10102000D06F120000C0E5FF7BEC08F0050E000158
:10103000D05D06E3006A6DB2002A0050010A01E1AA
:1010400002D056EC05F0E4CF00F01200E8AE04D078
:10105000F3CFEAFFEE501200E8BC08D0E9CFF6FF6C
:10106000F3CFF7FFF86E0900F55012001200D9CF48
:10107000E5FFE1CFD9FF00C0E5FF020EDBCF00F0B6
:10108000005000E1E4CF00F0E4CFD9FF120000C02F
:10109000E5FF006A70B0002A0050010A03E169EC24
:1010A00007F07090689AE4CF00F0120012EE3FF063
:1010B00022EE3FF0F86AA68EA69CB6EC05F0D4ECC2
:1010C00006F0FFD7E8AE05D0F3CFEAFFE4CFEEFF9E
:1010D0001200E8AC120012000100FA100000D30068
:1010E0000000010000006D926994689412009298CB
:0C10F0001200689C1200120012000000A8
:020000040030CA
:0E000000240E2000FF0180FFFFFFFFFFFFFF27
:0200000400F00A
:1000000000000100020003000400050006000700D4
:100010003000310032003300340035003600370044
:10002000380039006100620063006400650066000A
:00000001FF
